{
  "_format": "hh-sol-artifact-1",
  "contractName": "Marketplace",
  "sourceName": "contracts/Marketplace.sol",
  "abi": [
    {
      "inputs": [
        {
          "internalType": "uint256",
          "name": "_feePercent",
          "type": "uint256"
        }
      ],
      "stateMutability": "nonpayable",
      "type": "constructor"
    },
    {
      "anonymous": false,
      "inputs": [
        {
          "indexed": false,
          "internalType": "uint256",
          "name": "itemId",
          "type": "uint256"
        },
        {
          "indexed": true,
          "internalType": "address",
          "name": "nft",
          "type": "address"
        },
        {
          "indexed": false,
          "internalType": "uint256",
          "name": "tokenId",
          "type": "uint256"
        },
        {
          "indexed": false,
          "internalType": "uint256",
          "name": "price",
          "type": "uint256"
        },
        {
          "indexed": true,
          "internalType": "address",
          "name": "seller",
          "type": "address"
        },
        {
          "indexed": true,
          "internalType": "address",
          "name": "buyer",
          "type": "address"
        }
      ],
      "name": "Bought",
      "type": "event"
    },
    {
      "anonymous": false,
      "inputs": [
        {
          "indexed": false,
          "internalType": "uint256",
          "name": "itemId",
          "type": "uint256"
        },
        {
          "indexed": true,
          "internalType": "address",
          "name": "nft",
          "type": "address"
        },
        {
          "indexed": false,
          "internalType": "uint256",
          "name": "tokenId",
          "type": "uint256"
        },
        {
          "indexed": false,
          "internalType": "uint256",
          "name": "price",
          "type": "uint256"
        },
        {
          "indexed": true,
          "internalType": "address",
          "name": "seller",
          "type": "address"
        }
      ],
      "name": "Offered",
      "type": "event"
    },
    {
      "inputs": [],
      "name": "feeAccount",
      "outputs": [
        {
          "internalType": "address payable",
          "name": "",
          "type": "address"
        }
      ],
      "stateMutability": "view",
      "type": "function"
    },
    {
      "inputs": [],
      "name": "feePercent",
      "outputs": [
        {
          "internalType": "uint256",
          "name": "",
          "type": "uint256"
        }
      ],
      "stateMutability": "view",
      "type": "function"
    },
    {
      "inputs": [],
      "name": "getItemCount",
      "outputs": [
        {
          "internalType": "uint256",
          "name": "",
          "type": "uint256"
        }
      ],
      "stateMutability": "view",
      "type": "function"
    },
    {
      "inputs": [
        {
          "internalType": "uint256",
          "name": "_itemId",
          "type": "uint256"
        }
      ],
      "name": "getTotalPrice",
      "outputs": [
        {
          "internalType": "uint256",
          "name": "",
          "type": "uint256"
        }
      ],
      "stateMutability": "view",
      "type": "function"
    },
    {
      "inputs": [],
      "name": "getTotalPriceTwo",
      "outputs": [
        {
          "internalType": "uint256",
          "name": "",
          "type": "uint256"
        }
      ],
      "stateMutability": "view",
      "type": "function"
    },
    {
      "inputs": [],
      "name": "itemCount",
      "outputs": [
        {
          "internalType": "uint256",
          "name": "",
          "type": "uint256"
        }
      ],
      "stateMutability": "view",
      "type": "function"
    },
    {
      "inputs": [
        {
          "internalType": "uint256",
          "name": "",
          "type": "uint256"
        }
      ],
      "name": "items",
      "outputs": [
        {
          "internalType": "uint256",
          "name": "itemId",
          "type": "uint256"
        },
        {
          "internalType": "contract IERC721",
          "name": "nft",
          "type": "address"
        },
        {
          "internalType": "uint256",
          "name": "tokenId",
          "type": "uint256"
        },
        {
          "internalType": "uint256",
          "name": "price",
          "type": "uint256"
        },
        {
          "internalType": "address payable",
          "name": "seller",
          "type": "address"
        },
        {
          "internalType": "address",
          "name": "buyer",
          "type": "address"
        },
        {
          "internalType": "bool",
          "name": "sold",
          "type": "bool"
        }
      ],
      "stateMutability": "view",
      "type": "function"
    },
    {
      "inputs": [
        {
          "internalType": "contract IERC721",
          "name": "_nft",
          "type": "address"
        },
        {
          "internalType": "uint256",
          "name": "_tokenId",
          "type": "uint256"
        },
        {
          "internalType": "uint256",
          "name": "_price",
          "type": "uint256"
        }
      ],
      "name": "makeItem",
      "outputs": [],
      "stateMutability": "nonpayable",
      "type": "function"
    },
    {
      "inputs": [
        {
          "internalType": "uint256",
          "name": "_itemId",
          "type": "uint256"
        }
      ],
      "name": "purchaseItem",
      "outputs": [],
      "stateMutability": "payable",
      "type": "function"
    },
    {
      "inputs": [
        {
          "internalType": "uint256",
          "name": "_itemId",
          "type": "uint256"
        }
      ],
      "name": "setTotalPriceTwo",
      "outputs": [],
      "stateMutability": "nonpayable",
      "type": "function"
    },
    {
      "inputs": [],
      "name": "tPrice",
      "outputs": [
        {
          "internalType": "uint256",
          "name": "",
          "type": "uint256"
        }
      ],
      "stateMutability": "view",
      "type": "function"
    }
  ],
  "bytecode": "0x60c060405234801561001057600080fd5b50604051610a7b380380610a7b83398101604081905261002f91610043565b60016000553360601b60805260a05261005b565b600060208284031215610054578081fd5b5051919050565b60805160601c60a0516109e46100976000396000818161014e015281816102b5015261030e01526000818160d7015261052201526109e46000f3fe60806040526004361061009c5760003560e01c8063bfb231d211610064578063bfb231d214610170578063ca7dd37514610221578063d17f00ae14610241578063d38ea5bf14610263578063efac454614610276578063fa00afc71461028c57600080fd5b80630923f6f8146100a157806365e17c9d146100c55780636bfb0d01146101115780637749cf23146101275780637fd6f15c1461013c575b600080fd5b3480156100ad57600080fd5b506002545b6040519081526020015b60405180910390f35b3480156100d157600080fd5b506100f97f000000000000000000000000000000000000000000000000000000000000000081565b6040516001600160a01b0390911681526020016100bc565b34801561011d57600080fd5b506100b260015481565b34801561013357600080fd5b506001546100b2565b34801561014857600080fd5b506100b27f000000000000000000000000000000000000000000000000000000000000000081565b34801561017c57600080fd5b506101de61018b3660046108f7565b600360208190526000918252604090912080546001820154600283015493830154600484015460059094015492946001600160a01b0392831694909391929081169190811690600160a01b900460ff1687565b604080519788526001600160a01b03968716602089015287019490945260608601929092528316608085015290911660a0830152151560c082015260e0016100bc565b34801561022d57600080fd5b506100b261023c3660046108f7565b6102ac565b34801561024d57600080fd5b5061026161025c3660046108f7565b610307565b005b6102616102713660046108f7565b610360565b34801561028257600080fd5b506100b260025481565b34801561029857600080fd5b506102616102a73660046108b8565b61067f565b600060646102da7f00000000000000000000000000000000000000000000000000000000000000008261090f565b600084815260036020819052604090912001546102f79190610947565b6103019190610927565b92915050565b60646103337f00000000000000000000000000000000000000000000000000000000000000008261090f565b600083815260036020819052604090912001546103509190610947565b61035a9190610927565b60025550565b600260005414156103b85760405162461bcd60e51b815260206004820152601f60248201527f5265656e7472616e637947756172643a207265656e7472616e742063616c6c0060448201526064015b60405180910390fd5b60026000908155818152600360205260408120906103d5836102ac565b90506000831180156103e957506001548311155b61042a5760405162461bcd60e51b8152602060048201526012602482015271125d195b48191bd95cdb89dd08195e1a5cdd60721b60448201526064016103af565b6005820154600160a01b900460ff161561047a5760405162461bcd60e51b8152602060048201526011602482015270125d195b48185b1c9958591e481cdbdb19607a1b60448201526064016103af565b803410156104df5760405162461bcd60e51b815260206004820152602c60248201527f4e6f7420656e6f75676820657468657220746f20636f766572206974656d207060448201526b7269636520616e642066656560a01b60648201526084016103af565b600482015460038301546040516001600160a01b039092169181156108fc0291906000818181858888f1935050505015801561051f573d6000803e3d6000fd5b507f00000000000000000000000000000000000000000000000000000000000000006001600160a01b03166108fc83600301548361055d9190610966565b6040518115909202916000818181858888f19350505050158015610585573d6000803e3d6000fd5b506005820180546001600160a81b03191633908117600160a01b17909155600183015460028401546040516323b872dd60e01b8152306004820152602481019390935260448301526001600160a01b0316906323b872dd90606401600060405180830381600087803b1580156105fa57600080fd5b505af115801561060e573d6000803e3d6000fd5b50505050600482015460018301546002840154600385015460408051888152602081019390935282015233926001600160a01b039081169216907f8b4c9c8a607d67b321582dd8461041b1dc2ceeca70c8b7f37f8e02095cf2e76d9060600160405180910390a45050600160005550565b600260005414156106d25760405162461bcd60e51b815260206004820152601f60248201527f5265656e7472616e637947756172643a207265656e7472616e742063616c6c0060448201526064016103af565b6002600055806107245760405162461bcd60e51b815260206004820152601f60248201527f5072696365206d7573742062652067726561746572207468616e207a65726f0060448201526064016103af565b600180549060006107348361097d565b90915550506040516323b872dd60e01b8152336004820152306024820152604481018390526001600160a01b038416906323b872dd90606401600060405180830381600087803b15801561078757600080fd5b505af115801561079b573d6000803e3d6000fd5b50506040805160e081018252600180548083526001600160a01b03808a1660208086018281528688018c8152606088018c81523360808a01818152600060a08c0181815260c08d018281529a8252600397889052908d90209b518c5594518b8b018054918a166001600160a01b0319928316179055935160028c01559151948a01949094555160048901805491871691909216179055516005909601805494511515600160a01b026001600160a81b031990951696909316959095179290921790559054925191945092507f655a0cf9c8db81512be9a76dc1c5ae5380b8816ce6ad659cd61b715e2999d59a916108a691879087909283526020830191909152604082015260600190565b60405180910390a35050600160005550565b6000806000606084860312156108cc578283fd5b83356001600160a01b03811681146108e2578384fd5b95602085013595506040909401359392505050565b600060208284031215610908578081fd5b5035919050565b6000821982111561092257610922610998565b500190565b60008261094257634e487b7160e01b81526012600452602481fd5b500490565b600081600019048311821515161561096157610961610998565b500290565b60008282101561097857610978610998565b500390565b600060001982141561099157610991610998565b5060010190565b634e487b7160e01b600052601160045260246000fdfea264697066735822122070b53b78f664b116ed1120c295de1a176cab90c430e733d7c3f18472a361c00d64736f6c63430008040033",
  "linkReferences": {},
  "deployedLinkReferences": {}
}