{
  "_format": "hh-sol-artifact-1",
  "contractName": "NFT",
  "sourceName": "contracts/NFT.sol",
  "abi": [
    {
      "inputs": [],
      "stateMutability": "nonpayable",
      "type": "constructor"
    },
    {
      "anonymous": false,
      "inputs": [
        {
          "indexed": true,
          "internalType": "address",
          "name": "owner",
          "type": "address"
        },
        {
          "indexed": true,
          "internalType": "address",
          "name": "approved",
          "type": "address"
        },
        {
          "indexed": true,
          "internalType": "uint256",
          "name": "tokenId",
          "type": "uint256"
        }
      ],
      "name": "Approval",
      "type": "event"
    },
    {
      "anonymous": false,
      "inputs": [
        {
          "indexed": true,
          "internalType": "address",
          "name": "owner",
          "type": "address"
        },
        {
          "indexed": true,
          "internalType": "address",
          "name": "operator",
          "type": "address"
        },
        {
          "indexed": false,
          "internalType": "bool",
          "name": "approved",
          "type": "bool"
        }
      ],
      "name": "ApprovalForAll",
      "type": "event"
    },
    {
      "anonymous": false,
      "inputs": [
        {
          "indexed": true,
          "internalType": "address",
          "name": "from",
          "type": "address"
        },
        {
          "indexed": true,
          "internalType": "address",
          "name": "to",
          "type": "address"
        },
        {
          "indexed": true,
          "internalType": "uint256",
          "name": "tokenId",
          "type": "uint256"
        }
      ],
      "name": "Transfer",
      "type": "event"
    },
    {
      "inputs": [
        {
          "internalType": "address",
          "name": "to",
          "type": "address"
        },
        {
          "internalType": "uint256",
          "name": "tokenId",
          "type": "uint256"
        }
      ],
      "name": "approve",
      "outputs": [],
      "stateMutability": "nonpayable",
      "type": "function"
    },
    {
      "inputs": [
        {
          "internalType": "address",
          "name": "owner",
          "type": "address"
        }
      ],
      "name": "balanceOf",
      "outputs": [
        {
          "internalType": "uint256",
          "name": "",
          "type": "uint256"
        }
      ],
      "stateMutability": "view",
      "type": "function"
    },
    {
      "inputs": [
        {
          "internalType": "uint256",
          "name": "tokenId",
          "type": "uint256"
        }
      ],
      "name": "getApproved",
      "outputs": [
        {
          "internalType": "address",
          "name": "",
          "type": "address"
        }
      ],
      "stateMutability": "view",
      "type": "function"
    },
    {
      "inputs": [],
      "name": "getTokenCount",
      "outputs": [
        {
          "internalType": "uint256",
          "name": "",
          "type": "uint256"
        }
      ],
      "stateMutability": "view",
      "type": "function"
    },
    {
      "inputs": [
        {
          "internalType": "address",
          "name": "owner",
          "type": "address"
        },
        {
          "internalType": "address",
          "name": "operator",
          "type": "address"
        }
      ],
      "name": "isApprovedForAll",
      "outputs": [
        {
          "internalType": "bool",
          "name": "",
          "type": "bool"
        }
      ],
      "stateMutability": "view",
      "type": "function"
    },
    {
      "inputs": [
        {
          "internalType": "string",
          "name": "_tokenURI",
          "type": "string"
        }
      ],
      "name": "mint",
      "outputs": [
        {
          "internalType": "uint256",
          "name": "",
          "type": "uint256"
        }
      ],
      "stateMutability": "nonpayable",
      "type": "function"
    },
    {
      "inputs": [],
      "name": "name",
      "outputs": [
        {
          "internalType": "string",
          "name": "",
          "type": "string"
        }
      ],
      "stateMutability": "view",
      "type": "function"
    },
    {
      "inputs": [
        {
          "internalType": "uint256",
          "name": "tokenId",
          "type": "uint256"
        }
      ],
      "name": "ownerOf",
      "outputs": [
        {
          "internalType": "address",
          "name": "",
          "type": "address"
        }
      ],
      "stateMutability": "view",
      "type": "function"
    },
    {
      "inputs": [
        {
          "internalType": "address",
          "name": "from",
          "type": "address"
        },
        {
          "internalType": "address",
          "name": "to",
          "type": "address"
        },
        {
          "internalType": "uint256",
          "name": "tokenId",
          "type": "uint256"
        }
      ],
      "name": "safeTransferFrom",
      "outputs": [],
      "stateMutability": "nonpayable",
      "type": "function"
    },
    {
      "inputs": [
        {
          "internalType": "address",
          "name": "from",
          "type": "address"
        },
        {
          "internalType": "address",
          "name": "to",
          "type": "address"
        },
        {
          "internalType": "uint256",
          "name": "tokenId",
          "type": "uint256"
        },
        {
          "internalType": "bytes",
          "name": "_data",
          "type": "bytes"
        }
      ],
      "name": "safeTransferFrom",
      "outputs": [],
      "stateMutability": "nonpayable",
      "type": "function"
    },
    {
      "inputs": [
        {
          "internalType": "address",
          "name": "operator",
          "type": "address"
        },
        {
          "internalType": "bool",
          "name": "approved",
          "type": "bool"
        }
      ],
      "name": "setApprovalForAll",
      "outputs": [],
      "stateMutability": "nonpayable",
      "type": "function"
    },
    {
      "inputs": [
        {
          "internalType": "bytes4",
          "name": "interfaceId",
          "type": "bytes4"
        }
      ],
      "name": "supportsInterface",
      "outputs": [
        {
          "internalType": "bool",
          "name": "",
          "type": "bool"
        }
      ],
      "stateMutability": "view",
      "type": "function"
    },
    {
      "inputs": [],
      "name": "symbol",
      "outputs": [
        {
          "internalType": "string",
          "name": "",
          "type": "string"
        }
      ],
      "stateMutability": "view",
      "type": "function"
    },
    {
      "inputs": [],
      "name": "tokenCount",
      "outputs": [
        {
          "internalType": "uint256",
          "name": "",
          "type": "uint256"
        }
      ],
      "stateMutability": "view",
      "type": "function"
    },
    {
      "inputs": [
        {
          "internalType": "uint256",
          "name": "tokenId",
          "type": "uint256"
        }
      ],
      "name": "tokenURI",
      "outputs": [
        {
          "internalType": "string",
          "name": "",
          "type": "string"
        }
      ],
      "stateMutability": "view",
      "type": "function"
    },
    {
      "inputs": [
        {
          "internalType": "address",
          "name": "from",
          "type": "address"
        },
        {
          "internalType": "address",
          "name": "to",
          "type": "address"
        },
        {
          "internalType": "uint256",
          "name": "tokenId",
          "type": "uint256"
        }
      ],
      "name": "transferFrom",
      "outputs": [],
      "stateMutability": "nonpayable",
      "type": "function"
    }
  ],
  "bytecode": "0x60806040523480156200001157600080fd5b50604080518082018252600881526711105c1c0813919560c21b6020808301918252835180850190945260048452630444150560e41b9084015281519192916200005e916000916200007d565b508051620000749060019060208401906200007d565b50505062000160565b8280546200008b9062000123565b90600052602060002090601f016020900481019282620000af5760008555620000fa565b82601f10620000ca57805160ff1916838001178555620000fa565b82800160010185558215620000fa579182015b82811115620000fa578251825591602001919060010190620000dd565b50620001089291506200010c565b5090565b5b808211156200010857600081556001016200010d565b600181811c908216806200013857607f821691505b602082108114156200015a57634e487b7160e01b600052602260045260246000fd5b50919050565b61174680620001706000396000f3fe608060405234801561001057600080fd5b50600436106101005760003560e01c806378a8956711610097578063b88d4fde11610066578063b88d4fde14610208578063c87b56dd1461021b578063d85d3d271461022e578063e985e9c51461024157600080fd5b806378a89567146101dc57806395d89b41146101e45780639f181b5e146101ec578063a22cb465146101f557600080fd5b806323b872dd116100d357806323b872dd1461018257806342842e0e146101955780636352211e146101a857806370a08231146101bb57600080fd5b806301ffc9a71461010557806306fdde031461012d578063081812fc14610142578063095ea7b31461016d575b600080fd5b6101186101133660046113f8565b61027d565b60405190151581526020015b60405180910390f35b6101356102cf565b6040516101249190611526565b610155610150366004611476565b610361565b6040516001600160a01b039091168152602001610124565b61018061017b3660046113cf565b6103ee565b005b6101806101903660046112e1565b610504565b6101806101a33660046112e1565b610535565b6101556101b6366004611476565b610550565b6101ce6101c9366004611295565b6105c7565b604051908152602001610124565b6007546101ce565b61013561064e565b6101ce60075481565b610180610203366004611395565b61065d565b61018061021636600461131c565b61066c565b610135610229366004611476565b6106a4565b6101ce61023c366004611430565b61081b565b61011861024f3660046112af565b6001600160a01b03918216600090815260056020908152604080832093909416825291909152205460ff1690565b60006001600160e01b031982166380ac58cd60e01b14806102ae57506001600160e01b03198216635b5e139f60e01b145b806102c957506301ffc9a760e01b6001600160e01b03198316145b92915050565b6060600080546102de9061164b565b80601f016020809104026020016040519081016040528092919081815260200182805461030a9061164b565b80156103575780601f1061032c57610100808354040283529160200191610357565b820191906000526020600020905b81548152906001019060200180831161033a57829003601f168201915b5050505050905090565b600061036c82610851565b6103d25760405162461bcd60e51b815260206004820152602c60248201527f4552433732313a20617070726f76656420717565727920666f72206e6f6e657860448201526b34b9ba32b73a103a37b5b2b760a11b60648201526084015b60405180910390fd5b506000908152600460205260409020546001600160a01b031690565b60006103f982610550565b9050806001600160a01b0316836001600160a01b031614156104675760405162461bcd60e51b815260206004820152602160248201527f4552433732313a20617070726f76616c20746f2063757272656e74206f776e656044820152603960f91b60648201526084016103c9565b336001600160a01b03821614806104835750610483813361024f565b6104f55760405162461bcd60e51b815260206004820152603860248201527f4552433732313a20617070726f76652063616c6c6572206973206e6f74206f7760448201527f6e6572206e6f7220617070726f76656420666f7220616c6c000000000000000060648201526084016103c9565b6104ff838361086e565b505050565b61050e33826108dc565b61052a5760405162461bcd60e51b81526004016103c99061158b565b6104ff8383836109c2565b6104ff8383836040518060200160405280600081525061066c565b6000818152600260205260408120546001600160a01b0316806102c95760405162461bcd60e51b815260206004820152602960248201527f4552433732313a206f776e657220717565727920666f72206e6f6e657869737460448201526832b73a103a37b5b2b760b91b60648201526084016103c9565b60006001600160a01b0382166106325760405162461bcd60e51b815260206004820152602a60248201527f4552433732313a2062616c616e636520717565727920666f7220746865207a65604482015269726f206164647265737360b01b60648201526084016103c9565b506001600160a01b031660009081526003602052604090205490565b6060600180546102de9061164b565b610668338383610b5e565b5050565b61067633836108dc565b6106925760405162461bcd60e51b81526004016103c99061158b565b61069e84848484610c2d565b50505050565b60606106af82610851565b6107155760405162461bcd60e51b815260206004820152603160248201527f45524337323155524953746f726167653a2055524920717565727920666f72206044820152703737b732bc34b9ba32b73a103a37b5b2b760791b60648201526084016103c9565b6000828152600660205260408120805461072e9061164b565b80601f016020809104026020016040519081016040528092919081815260200182805461075a9061164b565b80156107a75780601f1061077c576101008083540402835291602001916107a7565b820191906000526020600020905b81548152906001019060200180831161078a57829003601f168201915b5050505050905060006107c560408051602081019091526000815290565b90508051600014156107d8575092915050565b81511561080a5780826040516020016107f29291906114ba565b60405160208183030381529060405292505050919050565b61081384610c60565b949350505050565b600780546000918261082c83611686565b919050555061083d33600754610d38565b61084960075483610d52565b505060075490565b6000908152600260205260409020546001600160a01b0316151590565b600081815260046020526040902080546001600160a01b0319166001600160a01b03841690811790915581906108a382610550565b6001600160a01b03167f8c5be1e5ebec7d5bd14f71427d1e84f3dd0314c0f7b2291e5b200ac8c7c3b92560405160405180910390a45050565b60006108e782610851565b6109485760405162461bcd60e51b815260206004820152602c60248201527f4552433732313a206f70657261746f7220717565727920666f72206e6f6e657860448201526b34b9ba32b73a103a37b5b2b760a11b60648201526084016103c9565b600061095383610550565b9050806001600160a01b0316846001600160a01b0316148061098e5750836001600160a01b031661098384610361565b6001600160a01b0316145b8061081357506001600160a01b0380821660009081526005602090815260408083209388168352929052205460ff16610813565b826001600160a01b03166109d582610550565b6001600160a01b031614610a395760405162461bcd60e51b815260206004820152602560248201527f4552433732313a207472616e736665722066726f6d20696e636f72726563742060448201526437bbb732b960d91b60648201526084016103c9565b6001600160a01b038216610a9b5760405162461bcd60e51b8152602060048201526024808201527f4552433732313a207472616e7366657220746f20746865207a65726f206164646044820152637265737360e01b60648201526084016103c9565b610aa660008261086e565b6001600160a01b0383166000908152600360205260408120805460019290610acf908490611608565b90915550506001600160a01b0382166000908152600360205260408120805460019290610afd9084906115dc565b909155505060008181526002602052604080822080546001600160a01b0319166001600160a01b0386811691821790925591518493918716917fddf252ad1be2c89b69c2b068fc378daa952ba7f163c4a11628f55a4df523b3ef91a4505050565b816001600160a01b0316836001600160a01b03161415610bc05760405162461bcd60e51b815260206004820152601960248201527f4552433732313a20617070726f766520746f2063616c6c65720000000000000060448201526064016103c9565b6001600160a01b03838116600081815260056020908152604080832094871680845294825291829020805460ff191686151590811790915591519182527f17307eab39ab6107e8899845ad3d59bd9653f200f220920489ca2b5937696c31910160405180910390a3505050565b610c388484846109c2565b610c4484848484610ddd565b61069e5760405162461bcd60e51b81526004016103c990611539565b6060610c6b82610851565b610ccf5760405162461bcd60e51b815260206004820152602f60248201527f4552433732314d657461646174613a2055524920717565727920666f72206e6f60448201526e3732bc34b9ba32b73a103a37b5b2b760891b60648201526084016103c9565b6000610ce660408051602081019091526000815290565b90506000815111610d065760405180602001604052806000815250610d31565b80610d1084610eea565b604051602001610d219291906114ba565b6040516020818303038152906040525b9392505050565b610668828260405180602001604052806000815250611004565b610d5b82610851565b610dbe5760405162461bcd60e51b815260206004820152602e60248201527f45524337323155524953746f726167653a2055524920736574206f66206e6f6e60448201526d32bc34b9ba32b73a103a37b5b2b760911b60648201526084016103c9565b600082815260066020908152604090912082516104ff9284019061116a565b60006001600160a01b0384163b15610edf57604051630a85bd0160e11b81526001600160a01b0385169063150b7a0290610e219033908990889088906004016114e9565b602060405180830381600087803b158015610e3b57600080fd5b505af1925050508015610e6b575060408051601f3d908101601f19168201909252610e6891810190611414565b60015b610ec5573d808015610e99576040519150601f19603f3d011682016040523d82523d6000602084013e610e9e565b606091505b508051610ebd5760405162461bcd60e51b81526004016103c990611539565b805181602001fd5b6001600160e01b031916630a85bd0160e11b149050610813565b506001949350505050565b606081610f0e5750506040805180820190915260018152600360fc1b602082015290565b8160005b8115610f385780610f2281611686565b9150610f319050600a836115f4565b9150610f12565b60008167ffffffffffffffff811115610f6157634e487b7160e01b600052604160045260246000fd5b6040519080825280601f01601f191660200182016040528015610f8b576020820181803683370190505b5090505b841561081357610fa0600183611608565b9150610fad600a866116a1565b610fb89060306115dc565b60f81b818381518110610fdb57634e487b7160e01b600052603260045260246000fd5b60200101906001600160f81b031916908160001a905350610ffd600a866115f4565b9450610f8f565b61100e8383611037565b61101b6000848484610ddd565b6104ff5760405162461bcd60e51b81526004016103c990611539565b6001600160a01b03821661108d5760405162461bcd60e51b815260206004820181905260248201527f4552433732313a206d696e7420746f20746865207a65726f206164647265737360448201526064016103c9565b61109681610851565b156110e35760405162461bcd60e51b815260206004820152601c60248201527f4552433732313a20746f6b656e20616c7265616479206d696e7465640000000060448201526064016103c9565b6001600160a01b038216600090815260036020526040812080546001929061110c9084906115dc565b909155505060008181526002602052604080822080546001600160a01b0319166001600160a01b03861690811790915590518392907fddf252ad1be2c89b69c2b068fc378daa952ba7f163c4a11628f55a4df523b3ef908290a45050565b8280546111769061164b565b90600052602060002090601f01602090048101928261119857600085556111de565b82601f106111b157805160ff19168380011785556111de565b828001600101855582156111de579182015b828111156111de5782518255916020019190600101906111c3565b506111ea9291506111ee565b5090565b5b808211156111ea57600081556001016111ef565b600067ffffffffffffffff8084111561121e5761121e6116e1565b604051601f8501601f19908116603f01168101908282118183101715611246576112466116e1565b8160405280935085815286868601111561125f57600080fd5b858560208301376000602087830101525050509392505050565b80356001600160a01b038116811461129057600080fd5b919050565b6000602082840312156112a6578081fd5b610d3182611279565b600080604083850312156112c1578081fd5b6112ca83611279565b91506112d860208401611279565b90509250929050565b6000806000606084860312156112f5578081fd5b6112fe84611279565b925061130c60208501611279565b9150604084013590509250925092565b60008060008060808587031215611331578081fd5b61133a85611279565b935061134860208601611279565b925060408501359150606085013567ffffffffffffffff81111561136a578182fd5b8501601f8101871361137a578182fd5b61138987823560208401611203565b91505092959194509250565b600080604083850312156113a7578182fd5b6113b083611279565b9150602083013580151581146113c4578182fd5b809150509250929050565b600080604083850312156113e1578182fd5b6113ea83611279565b946020939093013593505050565b600060208284031215611409578081fd5b8135610d31816116f7565b600060208284031215611425578081fd5b8151610d31816116f7565b600060208284031215611441578081fd5b813567ffffffffffffffff811115611457578182fd5b8201601f81018413611467578182fd5b61081384823560208401611203565b600060208284031215611487578081fd5b5035919050565b600081518084526114a681602086016020860161161f565b601f01601f19169290920160200192915050565b600083516114cc81846020880161161f565b8351908301906114e081836020880161161f565b01949350505050565b6001600160a01b038581168252841660208201526040810183905260806060820181905260009061151c9083018461148e565b9695505050505050565b602081526000610d31602083018461148e565b60208082526032908201527f4552433732313a207472616e7366657220746f206e6f6e20455243373231526560408201527131b2b4bb32b91034b6b83632b6b2b73a32b960711b606082015260800190565b60208082526031908201527f4552433732313a207472616e736665722063616c6c6572206973206e6f74206f6040820152701ddb995c881b9bdc88185c1c1c9bdd9959607a1b606082015260800190565b600082198211156115ef576115ef6116b5565b500190565b600082611603576116036116cb565b500490565b60008282101561161a5761161a6116b5565b500390565b60005b8381101561163a578181015183820152602001611622565b8381111561069e5750506000910152565b600181811c9082168061165f57607f821691505b6020821081141561168057634e487b7160e01b600052602260045260246000fd5b50919050565b600060001982141561169a5761169a6116b5565b5060010190565b6000826116b0576116b06116cb565b500690565b634e487b7160e01b600052601160045260246000fd5b634e487b7160e01b600052601260045260246000fd5b634e487b7160e01b600052604160045260246000fd5b6001600160e01b03198116811461170d57600080fd5b5056fea264697066735822122011172681d84070362a401b3059db61ea7e8766bf31b4cd95c50fe62bb24dbec164736f6c63430008040033",
  "linkReferences": {},
  "deployedLinkReferences": {}
}